{"contracts/Tom.sol":{"Tom":{"abi":[{"inputs":[],"name":"cool","outputs":[{"internalType":"uint256","name":"","type":"uint256"}],"stateMutability":"view","type":"function"},{"inputs":[],"name":"incrementTom","outputs":[],"stateMutability":"nonpayable","type":"function"}],"evm":{"bytecode":{"linkReferences":{},"object":"60806040526000805534801561001457600080fd5b5061014d806100246000396000f3fe608060405234801561001057600080fd5b50600436106100365760003560e01c80639d8ed7ed1461003b578063dce5c75714610045575b600080fd5b610043610063565b005b61004d61007a565b60405161005a9190610099565b60405180910390f35b600a60005461007291906100e3565b600081905550565b60005481565b6000819050919050565b61009381610080565b82525050565b60006020820190506100ae600083018461008a565b92915050565b7f4e487b7100000000000000000000000000000000000000000000000000000000600052601160045260246000fd5b60006100ee82610080565b91506100f983610080565b9250828201905080821115610111576101106100b4565b5b9291505056fea26469706673582212206e7a5cfe00a2588b674307f6f27b9ca4cb881e52b9b5aabad307c105344e493f64736f6c63430008180033","opcodes":"PUSH1 0x80 PUSH1 0x40 MSTORE PUSH1 0x0 DUP1 SSTORE CALLVALUE DUP1 ISZERO PUSH2 0x14 JUMPI PUSH1 0x0 DUP1 REVERT JUMPDEST POP PUSH2 0x14D DUP1 PUSH2 0x24 PUSH1 0x0 CODECOPY PUSH1 0x0 RETURN INVALID PUSH1 0x80 PUSH1 0x40 MSTORE CALLVALUE DUP1 ISZERO PUSH2 0x10 JUMPI PUSH1 0x0 DUP1 REVERT JUMPDEST POP PUSH1 0x4 CALLDATASIZE LT PUSH2 0x36 JUMPI PUSH1 0x0 CALLDATALOAD PUSH1 0xE0 SHR DUP1 PUSH4 0x9D8ED7ED EQ PUSH2 0x3B JUMPI DUP1 PUSH4 0xDCE5C757 EQ PUSH2 0x45 JUMPI JUMPDEST PUSH1 0x0 DUP1 REVERT JUMPDEST PUSH2 0x43 PUSH2 0x63 JUMP JUMPDEST STOP JUMPDEST PUSH2 0x4D PUSH2 0x7A JUMP JUMPDEST PUSH1 0x40 MLOAD PUSH2 0x5A SWAP2 SWAP1 PUSH2 0x99 JUMP JUMPDEST PUSH1 0x40 MLOAD DUP1 SWAP2 SUB SWAP1 RETURN JUMPDEST PUSH1 0xA PUSH1 0x0 SLOAD PUSH2 0x72 SWAP2 SWAP1 PUSH2 0xE3 JUMP JUMPDEST PUSH1 0x0 DUP2 SWAP1 SSTORE POP JUMP JUMPDEST PUSH1 0x0 SLOAD DUP2 JUMP JUMPDEST PUSH1 0x0 DUP2 SWAP1 POP SWAP2 SWAP1 POP JUMP JUMPDEST PUSH2 0x93 DUP2 PUSH2 0x80 JUMP JUMPDEST DUP3 MSTORE POP POP JUMP JUMPDEST PUSH1 0x0 PUSH1 0x20 DUP3 ADD SWAP1 POP PUSH2 0xAE PUSH1 0x0 DUP4 ADD DUP5 PUSH2 0x8A JUMP JUMPDEST SWAP3 SWAP2 POP POP JUMP JUMPDEST PUSH32 0x4E487B7100000000000000000000000000000000000000000000000000000000 PUSH1 0x0 MSTORE PUSH1 0x11 PUSH1 0x4 MSTORE PUSH1 0x24 PUSH1 0x0 REVERT JUMPDEST PUSH1 0x0 PUSH2 0xEE DUP3 PUSH2 0x80 JUMP JUMPDEST SWAP2 POP PUSH2 0xF9 DUP4 PUSH2 0x80 JUMP JUMPDEST SWAP3 POP DUP3 DUP3 ADD SWAP1 POP DUP1 DUP3 GT ISZERO PUSH2 0x111 JUMPI PUSH2 0x110 PUSH2 0xB4 JUMP JUMPDEST JUMPDEST SWAP3 SWAP2 POP POP JUMP INVALID LOG2 PUSH5 0x6970667358 0x22 SLT KECCAK256 PUSH15 0x7A5CFE00A2588B674307F6F27B9CA4 0xCB DUP9 0x1E MSTORE 0xB9 0xB5 0xAA 0xBA 0xD3 SMOD 0xC1 SDIV CALLVALUE 0x4E BLOBHASH EXTCODEHASH PUSH5 0x736F6C6343 STOP ADDMOD XOR STOP CALLER "},"methodIdentifiers":{"cool()":"dce5c757","incrementTom()":"9d8ed7ed"}}}}}