{
  "_format": "hh-sol-artifact-1",
  "contractName": "Tom",
  "sourceName": "contracts/Tom.sol",
  "abi": [
    {
      "inputs": [],
      "name": "cool",
      "outputs": [
        {
          "internalType": "uint256",
          "name": "",
          "type": "uint256"
        }
      ],
      "stateMutability": "view",
      "type": "function"
    },
    {
      "inputs": [],
      "name": "incrementTom",
      "outputs": [],
      "stateMutability": "nonpayable",
      "type": "function"
    }
  ],
  "bytecode": "0x60806040526000805534801561001457600080fd5b5061014d806100246000396000f3fe608060405234801561001057600080fd5b50600436106100365760003560e01c80639d8ed7ed1461003b578063dce5c75714610045575b600080fd5b610043610063565b005b61004d61007a565b60405161005a9190610099565b60405180910390f35b600a60005461007291906100e3565b600081905550565b60005481565b6000819050919050565b61009381610080565b82525050565b60006020820190506100ae600083018461008a565b92915050565b7f4e487b7100000000000000000000000000000000000000000000000000000000600052601160045260246000fd5b60006100ee82610080565b91506100f983610080565b9250828201905080821115610111576101106100b4565b5b9291505056fea26469706673582212206e7a5cfe00a2588b674307f6f27b9ca4cb881e52b9b5aabad307c105344e493f64736f6c63430008180033",
  "linkReferences": {},
  "deployedLinkReferences": {}
}