{
  "_format": "hh-sol-artifact-1",
  "contractName": "Counter",
  "sourceName": "contracts/Counter.sol",
  "abi": [
    {
      "inputs": [],
      "name": "count",
      "outputs": [
        {
          "internalType": "uint256",
          "name": "",
          "type": "uint256"
        }
      ],
      "stateMutability": "view",
      "type": "function"
    },
    {
      "inputs": [],
      "name": "incrementCount",
      "outputs": [],
      "stateMutability": "nonpayable",
      "type": "function"
    }
  ],
  "bytecode": "0x60806040526000805534801561001457600080fd5b5061014d806100246000396000f3fe608060405234801561001057600080fd5b50600436106100365760003560e01c806306661abd1461003b578063e5071b8e14610059575b600080fd5b610043610063565b6040516100509190610099565b60405180910390f35b610061610069565b005b60005481565b600160005461007891906100e3565b600081905550565b6000819050919050565b61009381610080565b82525050565b60006020820190506100ae600083018461008a565b92915050565b7f4e487b7100000000000000000000000000000000000000000000000000000000600052601160045260246000fd5b60006100ee82610080565b91506100f983610080565b9250828201905080821115610111576101106100b4565b5b9291505056fea2646970667358221220a12cba4b0012150092da48dd2def630f8850ff57a09f9beb38ae59517b276f1f64736f6c63430008180033",
  "linkReferences": {},
  "deployedLinkReferences": {}
}